{
  "_format": "hh-sol-artifact-1",
  "contractName": "MyDAO",
  "sourceName": "contracts/DAO.sol",
  "abi": [
    {
      "inputs": [],
      "stateMutability": "nonpayable",
      "type": "constructor"
    },
    {
      "anonymous": false,
      "inputs": [
        {
          "indexed": false,
          "internalType": "address",
          "name": "member",
          "type": "address"
        },
        {
          "indexed": false,
          "internalType": "bool",
          "name": "isMember",
          "type": "bool"
        }
      ],
      "name": "MembershipChanged",
      "type": "event"
    },
    {
      "anonymous": false,
      "inputs": [
        {
          "indexed": false,
          "internalType": "bytes32",
          "name": "proposalId",
          "type": "bytes32"
        },
        {
          "indexed": false,
          "internalType": "address",
          "name": "proposer",
          "type": "address"
        }
      ],
      "name": "ProposalCreated",
      "type": "event"
    },
    {
      "anonymous": false,
      "inputs": [
        {
          "indexed": false,
          "internalType": "bytes32",
          "name": "proposalId",
          "type": "bytes32"
        },
        {
          "indexed": false,
          "internalType": "uint256",
          "name": "yesVotes",
          "type": "uint256"
        },
        {
          "indexed": false,
          "internalType": "uint256",
          "name": "noVotes",
          "type": "uint256"
        },
        {
          "indexed": false,
          "internalType": "bool",
          "name": "passed",
          "type": "bool"
        }
      ],
      "name": "ProposalResult",
      "type": "event"
    },
    {
      "anonymous": false,
      "inputs": [
        {
          "indexed": false,
          "internalType": "bytes32",
          "name": "proposalId",
          "type": "bytes32"
        },
        {
          "indexed": false,
          "internalType": "address",
          "name": "voter",
          "type": "address"
        },
        {
          "indexed": false,
          "internalType": "bool",
          "name": "inSupport",
          "type": "bool"
        },
        {
          "indexed": false,
          "internalType": "uint256",
          "name": "voteWeight",
          "type": "uint256"
        }
      ],
      "name": "Voted",
      "type": "event"
    },
    {
      "inputs": [],
      "name": "admin",
      "outputs": [
        {
          "internalType": "address",
          "name": "",
          "type": "address"
        }
      ],
      "stateMutability": "view",
      "type": "function"
    },
    {
      "inputs": [],
      "name": "applyForMembership",
      "outputs": [],
      "stateMutability": "nonpayable",
      "type": "function"
    },
    {
      "inputs": [
        {
          "internalType": "address",
          "name": "member",
          "type": "address"
        }
      ],
      "name": "approveMembership",
      "outputs": [],
      "stateMutability": "nonpayable",
      "type": "function"
    },
    {
      "inputs": [
        {
          "internalType": "bytes32",
          "name": "proposalId",
          "type": "bytes32"
        }
      ],
      "name": "closeProposal",
      "outputs": [],
      "stateMutability": "nonpayable",
      "type": "function"
    },
    {
      "inputs": [
        {
          "internalType": "string",
          "name": "description",
          "type": "string"
        }
      ],
      "name": "createProposal",
      "outputs": [],
      "stateMutability": "nonpayable",
      "type": "function"
    },
    {
      "inputs": [
        {
          "internalType": "address",
          "name": "",
          "type": "address"
        }
      ],
      "name": "members",
      "outputs": [
        {
          "internalType": "bool",
          "name": "",
          "type": "bool"
        }
      ],
      "stateMutability": "view",
      "type": "function"
    },
    {
      "inputs": [],
      "name": "proposalCount",
      "outputs": [
        {
          "internalType": "uint256",
          "name": "",
          "type": "uint256"
        }
      ],
      "stateMutability": "view",
      "type": "function"
    },
    {
      "inputs": [
        {
          "internalType": "bytes32",
          "name": "",
          "type": "bytes32"
        }
      ],
      "name": "proposals",
      "outputs": [
        {
          "internalType": "address",
          "name": "proposer",
          "type": "address"
        },
        {
          "internalType": "string",
          "name": "description",
          "type": "string"
        },
        {
          "internalType": "uint256",
          "name": "yesVotes",
          "type": "uint256"
        },
        {
          "internalType": "uint256",
          "name": "noVotes",
          "type": "uint256"
        },
        {
          "internalType": "bool",
          "name": "open",
          "type": "bool"
        }
      ],
      "stateMutability": "view",
      "type": "function"
    },
    {
      "inputs": [
        {
          "internalType": "bytes32",
          "name": "proposalId",
          "type": "bytes32"
        },
        {
          "internalType": "bool",
          "name": "inSupport",
          "type": "bool"
        }
      ],
      "name": "vote",
      "outputs": [],
      "stateMutability": "nonpayable",
      "type": "function"
    }
  ],
  "bytecode": "0x608060405234801561001057600080fd5b50600080546001600160a01b03191633179055610ac2806100326000396000f3fe608060405234801561001057600080fd5b50600436106100935760003560e01c80635e1ee52a116100665780635e1ee52a1461011c57806379a68cf1146101245780639f2ce67814610137578063da35c6641461014a578063f851a4401461016157600080fd5b8063078f872c1461009857806308ae4b0c146100ad57806332ed5b12146100e557806349c2a1a614610109575b600080fd5b6100ab6100a6366004610776565b61018c565b005b6100d06100bb36600461078f565b60016020526000908152604090205460ff1681565b60405190151581526020015b60405180910390f35b6100f86100f3366004610776565b6102a0565b6040516100dc9594939291906107ef565b6100ab61011736600461085d565b610366565b6100ab61045c565b6100ab61013236600461078f565b6104ae565b6100ab61014536600461090e565b610534565b61015360035481565b6040519081526020016100dc565b600054610174906001600160a01b031681565b6040516001600160a01b0390911681526020016100dc565b6000546001600160a01b031633146101bf5760405162461bcd60e51b81526004016101b690610943565b60405180910390fd5b6000818152600260205260409020600581015460ff1615156001146102395760405162461bcd60e51b815260206004820152602a60248201527f566f74696e6720666f7220746869732070726f706f73616c20697320616c726560448201526918591e4818db1bdcd95960b21b60648201526084016101b6565b60058101805460ff191690556002810154600382015460408051858152602081018490528082018390528284116060820181905291517fc7c3d8d7851062fa1b242e1956ed7e3e4cfd68c4e9adef316f6810ad4f959e979181900360800190a15050505050565b600260205260009081526040902080546001820180546001600160a01b0390921692916102cc90610985565b80601f01602080910402602001604051908101604052809291908181526020018280546102f890610985565b80156103455780601f1061031a57610100808354040283529160200191610345565b820191906000526020600020905b81548152906001019060200180831161032857829003601f168201915b50505050600283015460038401546005909401549293909290915060ff1685565b3360009081526001602052604090205460ff166103955760405162461bcd60e51b81526004016101b6906109c0565b600033826003546040516020016103ae93929190610a04565b60408051601f1981840301815291815281516020928301206000818152600284529190912080546001600160a01b031916331781558451919350916103fa9160018401918601906106dd565b5060058101805460ff191660011790556003805490600061041a83610a59565b9091555050604080518381523360208201527fe90bb18a6fc9203e3678a7f41e132910465e0fce1421609662d02c481fbfbcf8910160405180910390a1505050565b33600081815260016020818152604092839020805460ff19168317905582519384528301527f27b022af4a8347100c7a041ce5ccf8e14d644ff05de696315196faae8cd50c9b910160405180910390a1565b6000546001600160a01b031633146104d85760405162461bcd60e51b81526004016101b690610943565b6001600160a01b038116600081815260016020818152604092839020805460ff19168317905582519384528301527f27b022af4a8347100c7a041ce5ccf8e14d644ff05de696315196faae8cd50c9b910160405180910390a150565b3360009081526001602052604090205460ff166105635760405162461bcd60e51b81526004016101b6906109c0565b6000828152600260209081526040808320338452600481019092529091205460ff16156105cb5760405162461bcd60e51b8152602060048201526016602482015275165bdd481a185d9948185b1c9958591e481d9bdd195960521b60448201526064016101b6565b600581015460ff16151560011461062f5760405162461bcd60e51b815260206004820152602260248201527f566f74696e6720666f7220746869732070726f706f73616c20697320636c6f73604482015261195960f21b60648201526084016101b6565b60018215610656578082600201600082825461064b9190610a74565b909155506106709050565b8082600301600082825461066a9190610a74565b90915550505b336000818152600484016020908152604091829020805460ff1916600117905581518781529081019290925284151590820152606081018290527f755f5495b65e6ffe748de1fe7173213557d364935e9d4804c17a03cc90b5532b9060800160405180910390a150505050565b8280546106e990610985565b90600052602060002090601f01602090048101928261070b5760008555610751565b82601f1061072457805160ff1916838001178555610751565b82800160010185558215610751579182015b82811115610751578251825591602001919060010190610736565b5061075d929150610761565b5090565b5b8082111561075d5760008155600101610762565b60006020828403121561078857600080fd5b5035919050565b6000602082840312156107a157600080fd5b81356001600160a01b03811681146107b857600080fd5b9392505050565b60005b838110156107da5781810151838201526020016107c2565b838111156107e9576000848401525b50505050565b60018060a01b038616815260a06020820152600085518060a084015261081c8160c0850160208a016107bf565b60408301959095525060608101929092521515608082015260c0601f909201601f1916010192915050565b634e487b7160e01b600052604160045260246000fd5b60006020828403121561086f57600080fd5b813567ffffffffffffffff8082111561088757600080fd5b818401915084601f83011261089b57600080fd5b8135818111156108ad576108ad610847565b604051601f8201601f19908116603f011681019083821181831017156108d5576108d5610847565b816040528281528760208487010111156108ee57600080fd5b826020860160208301376000928101602001929092525095945050505050565b6000806040838503121561092157600080fd5b823591506020830135801515811461093857600080fd5b809150509250929050565b60208082526022908201527f4f6e6c792061646d696e2063616e20706572666f726d2074686973206163746960408201526137b760f11b606082015260800190565b600181811c9082168061099957607f821691505b602082108114156109ba57634e487b7160e01b600052602260045260246000fd5b50919050565b60208082526024908201527f4f6e6c79206d656d626572732063616e20706572666f726d20746869732061636040820152633a34b7b760e11b606082015260800190565b6bffffffffffffffffffffffff198460601b16815260008351610a2e8160148501602088016107bf565b60149201918201929092526034019392505050565b634e487b7160e01b600052601160045260246000fd5b6000600019821415610a6d57610a6d610a43565b5060010190565b60008219821115610a8757610a87610a43565b50019056fea26469706673582212209d3ae6d122d3e82221c09b16d9ce658f6bbdcf80189c816f9ada61b2a52bfbe764736f6c63430008090033",
  "linkReferences": {},
  "deployedLinkReferences": {}
}